:1000000003308A00FA2B0000FF00030E8301A100D9
:100010000A08A0008A010408A2007708A300780853
:10002000A4007908A5007A08A600831383128C30F7
:100030008400801C1D288C182E2822088400230888
:10004000F7002408F8002508F9002608FA0020081F
:100050008A00210E8300FF0E7F0E09008A110A120A
:100060003128C60A46080C3C03185E28C60106184B
:100070003E2801300C1E3A2899005E288618452833
:1000800002300C1E412899005E2806195328E00111
:100090006008093C031C522803300C1E4D289900AF
:1000A000E00A48285E2886195A2804300C1E562873
:1000B00099005E2800300C1E5B2899008C108A1174
:1000C0000A121D280830F80000008711A711270820
:1000D0008316870000008312CE0D0712031C7628BA
:1000E00027162708831687007A28831227122708E5
:1000F0008316870000008312A71527088316870040
:100100008312871D8128F80B642800008711A7112E
:1001100027088316870000008312271627088316F6
:100120008700000000008312A715270883168700A8
:100130008312871D9928F8010000071A7814871187
:10014000A711270883168700831207122712270892
:100150008316870083120800271627088316870056
:1001600000008312A715270883168700000083125A
:1001700007122712270883168700000083128711B1
:10018000A711270883168700D0308312CE00622083
:100190004C08CE0062204D08CE00622027122708AE
:1001A0008316870000008312A7152708831687008F
:1001B0008312871DD9280000DD2800002716270894
:1001C000831687000000831208004C3084008313DC
:1001D00000080319F8280230F800F701F70BEE28A1
:1001E000F80BED289730F700F70BF428800BEB287D
:1001F00008006B30CC008030CD00AC206430CC00E7
:10020000E5206B30CC00CD01AC206430CC00E52083
:100210008A110A12392C2716270883168700000036
:100220008312A71527088316870000008312071280
:100230002712270883168700000083128711A71151
:10024000270883168700D0308312CE0062204C0826
:10025000CE0062202716270883168700000083122D
:10026000A71527088316870000008312871D3629EB
:1002700007122712270883168700000083128711B0
:10028000A711270883168700D1308312CE00622081
:10029000F7010830CF007708D0002716270883160B
:1002A000870000008312A715270883168700831292
:1002B000871D5829071A0314071E0310F80D0000A4
:1002C000A71127088316870083128711CF0B4D29AA
:1002D000271627088316870000008312071250088C
:1002E0000319772927122708831687008312000035
:1002F000A7152708831687008312871D7D29000014
:100300008711A711270883168700000083120712A0
:10031000271227088316870078088312CD0027123A
:1003200027088316870000008312A7152708831665
:1003300087008312871D9A2900009E290000271636
:100340002708831687000000FA0183124D08F80081
:100350007A08F90008008E30F7004D08F8004C08C4
:10036000F900FA01CD1FB929F809F909F90A0319A9
:10037000F80AF808031DC6297908F800F9010830C1
:10038000F702F808031DC629F701CF290310F81B4F
:10039000CD29F90DF80DF703C629CD1FF813080074
:1003A0004C080319952AD80050080319952AD80239
:1003B000031CDF297F30D8070318952AE5298130EF
:1003C000D802031C952A0319952A5808F700F8014A
:1003D000F901FA01D7014D08D600D6174E08D5000D
:1003E0004F08D4001930D8005308D4020318082A43
:1003F0000130D5020318082AD6020318082AD702AA
:100400000318082AD70AD60AD50A5308D4073A2A65
:100410005208D5020318232A0130D6020318232AD2
:10042000D7020318232AD70AD60A5208D507530839
:10043000D407031C3A2AD50A031D3A2AD60A031DFB
:100440003A2AD70A3A2A51088038D6020318392A9C
:100450000130D7020318392AD70A51088038D60745
:100460005208D507031C172AD60A031D172AD70AD4
:10047000172A7A14D80B3D2A482A0310D40DD50D1B
:10048000D60DD70D0310FA0DF90DF80DD90DF4297D
:10049000591C502A0310F80CF90CFA0CD90C532AE9
:1004A000F7030319952AD91B7C2A0310D40DD50D07
:1004B000D60DD70D5308D4020318682A0130D5028F
:1004C0000318682AD6020318682AD702031C8B2A4D
:1004D0005208D5020318732A0130D6020318732A72
:1004E000D702031C8B2A51088038D60203187C2AB5
:1004F0000130D702031C8B2AFA0A031D8B2AF90A42
:10050000031D8B2AF80A031D8B2AF70A0319952A63
:10051000F80CF90CFA0C4D08D8005108D806D81F71
:10052000932AF817992AF813992AF701F801F90183
:10053000FA01080080308318D506DA01DB01510882
:10054000D9005508D906500803198A2BD800F7009E
:1005500054080319932BD80203192F2B031CED2ADF
:100560005508DE00DE175608DD005708DC00DB0109
:100570000310DE0CDD0CDC0CDB0CD80BB72AD91F0A
:10058000C42A5A14A72B5A1058105A1653308400F4
:100590008313BC2B5A12D91BD72A581CE22ADE0C13
:1005A000DD0CDC0CDB0CF70A0319A22BE22ADE1BA4
:1005B000E52A0310DB0DDC0DDD0DDE0DF70303195D
:1005C000A22BD72A5A174F2B5A135108D900D91FDB
:1005D000EB2ADE179B2BDE139B2B5408D800F70069
:1005E0005008D8025108DE00DE175208DD0053081B
:1005F000DC00DB010310DE0CDD0CDC0CDB0CD80BAB
:10060000F92AD91F062BDA14A72BDA105810DA169C
:10061000573084008313BC2BDA12D91B192B581CBA
:10062000242BDE0CDD0CDC0CDB0CF70A0319A22BEF
:10063000242BDE1B272B0310DB0DDC0DDD0DDE0D67
:10064000F7030319A22B192BDA174F2BDA135508CE
:10065000D900D91F2D2BDE179B2BDE139B2B5508A2
:10066000DE00DE175608DD005708DC00D91F3C2BE2
:10067000DE135A15A72B5A11DB0158105330840092
:100680008313BC2BD91B652B5108D900581C4F2B49
:10069000DE0CDD0CDC0CDB0CF70A0319A22BDB1FD4
:1006A000602BDC0A031D602BDD0A031D602BDE0AB4
:1006B000031D602BDE0CDD0CDC0CF70A0319A22BEA
:1006C0005A1BE42ADA1B262B842B8030DE06DE1F21
:1006D0006D2BA72B5508D9007A2B5108D900DE08BD
:1006E000031D7A2BDD08031D7A2BDC08031D7A2BF2
:1006F000F7019B2BDE1B842B0310DB0DDC0DDD0DC6
:10070000DE0DF70B7A2BA22BD91F882BDE179B2B24
:10071000DE139B2B5408F7005508DE005608DD0059
:100720005708DC009B2B5008F7005108DE005208E8
:10073000DD005308DC005E08F8005D08F9005C0885
:10074000FA00DA2BF701F801F901FA01DA2BDB01E3
:10075000DC09DD09DE09DB09DB0A031DB52BDC0A38
:10076000031DB52BDD0A0319DE0A5A18C32ADA184D
:10077000052B5A193B2B6A2B0008DC07031CC62BE0
:10078000DD0A031DC62BDE0A031958148403000872
:10079000DD07031CCE2BDE0A03195814840300085E
:1007A000801F803ADE07031858145A1ACA2ADA1A28
:1007B0000C2B422B08008E30F7004C08F7024D0836
:1007C000F9004E08F800F917F7080319F22B031087
:1007D000F908031DEE2BF8080319F22BF90CF80C9D
:1007E000F70BE72BCD1FF92BF809F909F80A0319C4
:1007F000F90A080003081F398300713083168F003F
:100800000F08FF308312A7008316031787110C30DF
:1008100003139900A2309800903083129800B5011C
:10082000B401B701B601B901B801BB01BA01BD01FC
:10083000BC01BF01BE014710831603170908C03968
:10084000890003131F129F120030031788008312C0
:1008500087018801890183137130831603138F0088
:100860000F08FF3095008113033087008312A70023
:10087000F9287830F80005389200F030831692009D
:100880008312910183168C148C16C03083128B0452
:100890001A30CC000530CD00AC201C30CC0010301C
:1008A000CD00AC203B30CC000B217808A8003C30B8
:1008B000CC000B217808A9003D30CC000B21780832
:1008C000AA003E30CC000B217808AB003F30CC00B2
:1008D0000B217808AC004030CC000B217808AD002B
:1008E0001B30CC000830CD00AC204330CC000B21B5
:1008F0007808AE004430CC000B217808AF004530BA
:10090000CC000B217808B0004630CC000B217808D1
:10091000B1004730CC000B217808B2004830CC0041
:100920000B217808B3002808B5002908B4002A086C
:10093000B7002B08B6002C08B9002D08B8002E0807
:10094000BB002F08BA003008BD003108BC003208D7
:10095000BF003308BE003B08CD003A08CC00AB21F5
:100960007A08CF007908CE007808CD007708CC004F
:10097000D301D2010330D1008530D000D0217A08D4
:10098000CF007908CE007808CD007708CC0083101E
:100990007A08D3007908D2007808D1007708D0000F
:1009A000D701D601D5018130D4009A227A08CF0030
:1009B0007908CE007808CD007708CC00DB237908D1
:1009C000C1007808C0003D08CD003C08CC00AB2138
:1009D0007A08CF007908CE007808CD007708CC00DF
:1009E000D301D2010330D1008530D000D0217A0864
:1009F000CF007908CE007808CD007708CC008314AA
:100A00007A08D3007908D2007808D1007708D0009E
:100A1000D701D601D5017F30D4009A227A08CF00C1
:100A20007908CE007808CD007708CC00DB23790860
:100A3000C3007808C2003F08CD003E08CC00AB21BF
:100A40007A08CF007908CE007808CD007708CC006E
:100A5000D301D2010330D1008530D000D0217A08F3
:100A6000CF007908CE007808CD007708CC00DB23D2
:100A70007908C5007808C400C31B502DC308031DA6
:100A8000452D4208503C0318502DC801C808031DCD
:100A90004F2D02300C1E4A2D9900C80A462D912D6B
:100AA000C31F672D4308FF3C031C672D031D5C2DEE
:100AB0004208AF3C031C672DC901C908031D662D00
:100AC00001300C1E612D9900C90A5D2D912DC11BAD
:100AD0007B2DC108031D702D4008503C03187B2D51
:100AE000CA01CA08031D7A2D04300C1E752D990009
:100AF000CA0A712D912DC11F912D4108FF3C031C85
:100B0000912D031D872D4008AF3C031C912DCB0177
:100B1000CB08031D912D03300C1E8C2D9900CB0AA0
:060B2000882D482C630043
:04400E00C42CFF3F80
:00000001FF
;PIC16F887
;CRC=DE37  CREATED="17-May-24 13:18"
